:2000000002C100002DC100002BC1000029C1000027C1000025C1000023C1000021C10000C5
:200020001FC100001DC100001BC1000019C1000017C1000015C1000013C1000011C10000F8
:200040000FC100000DC100000BC1000009C1000007C1000005C1000003C1000007C3000050
:20006000FFC0000025C5000067C60000F9C00000F7C00000F5C00000F3C00000F1C0000021
:20008000EFC00000EDC00000EBC00000E9C000004FC5000090C60000E3C00000E1C0000002
:2000A000DFC00000DDC00000DBC00000D9C00000D7C00000D5C00000D3C00000D1C0000080
:2000C000CFC00000CDC00000CBC0000071C50000B1C60000C5C00000ABC50000EAC6000027
:2000E000BFC0000000002100240027002A002D003000330001010000040107010A01000041
:200100002200250028002B002E003100340002010000050108010B0100002000230026002B
:2001200029002C002F003200000100000301060109010505050507050808080802020202AB
:200140000A0A08080404040401010101010101010303030303030303040707070C0C0C0C02
:200160000C0C0C0C0202020206060606060606060B0B0B0B0B0B0B0B01021020200808104C
:20018000204010204080020102010804020101020408102040808040201008040201800478
:2001A000020180402010080402010804020101020408102040800102040810204080000030
:2001C000090A02080B0C0D07060304010000000000000000000000000000000000000000C9
:2001E0000000000000000000000011100F00000000000000000000000000000000000000CF
:2002000000000000C80811241FBECFEFD1E2DEBFCDBF00E00CBF12E0A0E0B2E0ECEFF6E101
:2002200000E00BBF02C007900D92A432B107D9F71BBE14E0A4E2B2E001C01D92A13FB107D1
:20024000E1F712E0C6E0D2E004C02297FE010E94780BC430D107C9F70E94FE090C947C0B7F
:20026000CFCE62E070E080E090E048D286E292E061E0CED090930C0280930B0286E292E081
:2002800062E0C6D090930E0280930D0286E292E063E0BED09093100280930F0286E292E053
:2002A00064E0B6D0909312028093110226C089E694E060E072E00E94240B40910B0250912C
:2002C0000C0286E292E061E06BD140910D0250910E0286E292E062E063D140910F025091D5
:2002E000100286E292E063E05BD1409111025091120286E292E064E053D18BE2A9D390937C
:200300002502809324028091240290912502019771F240910B0250910C02465F5F4F86E27B
:2003200092E061E03DD140910D0250910E02465F5F4F86E292E062E033D140910F025091F5
:200340001002465F5F4F86E292E063E029D14091110250911202465F5F4F86E292E064E0D7
:200360001FD160910B0270910C0289E694E04AE050E00E94100B89E694E067E072E00E9468
:20038000220B60910D0270910E0289E694E04AE050E00E94100B89E694E067E072E00E9407
:2003A000220B60910F027091100289E694E04AE050E00E94100B89E694E067E072E00E94E3
:2003C000220B609111027091120289E694E04AE050E00E94100B89E694E069E072E00C94BF
:2003E000220B8BE260E04FD289E694E040E855E260E070E09DD586E292E040E452E46FE03B
:2004000070E022E01ED168EE73E080E090E076C1EF92FF921F93CF93DF93EC01162F862F6C
:20042000845D80958883898161E0E0D28BE894E06FEF6ED68BE894E06FEF6AD68BE894E0C9
:20044000612F66D68BE894E064E062D68BE894E062E05ED68BE894E064E25AD68BE894E0CC
:2004600062E056D68BE894E0688152D680E991E09ED1898160E0BAD28FEF9FEF9B8B8A8BB0
:200480001A8205C02F5F2A8388EE93E090D18BE894E0D4D52A810797ACF52A3098F332C025
:2004A0008BE894E0FCD5182F8B838BE894E0D7D51F3F41F58F3F910529F58BE894E0EFD5DB
:2004C0008BE894E0ECD58BE894E0E9D58BE894E0E6D5998F888F009729F066277727681B90
:2004E000790B19C08BE894E0DAD58D838BE894E0D6D58C83F82EEE248D819701280F311DF5
:200500003B8B2A8B8BE894E099D5181619060CF4C7CF6A897B89CB01DF91CF911F91FF9056
:20052000EF9008951F93CF93DF93EC011A8205C02F5F2A8388EE93E03AD18BE894E07ED562
:200540002A81059704F52A3098F31DC08BE894E0A6D5182F8B838BE894E081D51F3F99F4BA
:200560008F3F910581F48BE894E099D58BE894E096D58BE894E093D58BE894E090D59C01C3
:20058000998F888F08C08BE894E058D518161906ECF22FEF3FEFC901DF91CF911F910895E2
:2005A0009F92AF92BF92CF92DF92EF92FF920F931F935C01962E7A01C52EDD24C7FCDA947F
:2005C000862F8A5D840F8C0D8095F5018083818161E00CD20BE814E0C8016FEF99D5C801DF
:2005E0006FEF96D5C801692D93D5C80165E090D5C80163E08DD5C8016EE18AD56E2D7727DA
:2006000067FD7095C80184D56C2D772767FD7095C8017ED5C801F50160817AD580E991E0CA
:20062000C6D0F501818160E0E1D1C5017BDF1F910F91FF90EF90DF90CF90BF90AF909F9031
:200640000895EF92FF920F931F937A018B01FC012183822F61E017D18BE894E0B801A701CD
:2006600067D41F910F91FF90EF9008951F920F920FB60F9211242F933F938F939F93AF932D
:20068000BF938091440290914502A0914602B0914702309148020196A11DB11D232F2D5F3A
:2006A0002D3720F02D570196A11DB11D209348028093440290934502A0934602B093470258
:2006C0008091400290914102A0914202B09143020196A11DB11D8093400290934102A09357
:2006E0004202B0934302BF91AF919F918F913F912F910F900FBE0F901F9018959B01AC010E
:200700007FB7F8948091400290914102A0914202B091430266B5A89B05C06F3F19F00196F4
:20072000A11DB11D7FBFBA2FA92F982F8827860F911DA11DB11D62E0880F991FAA1FBB1FB5
:200740006A95D1F7BC012DC0FFB7F8948091400290914102A0914202B0914302E6B5A89B56
:2007600005C0EF3F19F00196A11DB11DFFBFBA2FA92F982F88278E0F911DA11DB11DE2E0CC
:20078000880F991FAA1FBB1FEA95D1F7861B970B885E9340C8F221503040404050406851C0
:2007A0007C4F211531054105510571F60895019739F0880F991F880F991F02970197F1F7EA
:2007C0000895789484B5826084BD84B5816084BD85B5826085BD85B5816085BDEEE6F0E05A
:2007E000808181608083E1E8F0E01082808182608083808181608083E0E8F0E080818160A4
:200800008083E1EBF0E0808184608083E0EBF0E0808181608083E1E9F0E080818260808351
:20082000808181608083E0E9F0E0808181608083E1EAF0E0808182608083808181608083EF
:20084000E0EAF0E0808181608083E1E2F1E0808182608083808181608083E0E2F1E0808126
:2008600081608083EAE7F0E080818460808380818260808380818160808380818068808354
:200880001092C1000895CF93DF93482F50E0CA0188589E4FFC0134914E5C5E4FFA0184911C
:2008A000882369F190E0880F991FFC01EC51FF4FA591B491FC01E250FF4FC591D4916623B0
:2008C00051F42FB7F8948C91932F909589238C93888189230BC0623061F42FB7F8948C919C
:2008E000932F909589238C938881832B88832FBF06C09FB7F8948C91832B8C939FBFDF9136
:20090000CF910895893009F449C08A30A0F4843051F1853040F4823079F1833000F5813079
:2009200009F063C026C0873079F1883098F5863009F05BC025C08D3009F442C08E3028F40A
:200940008B30B1F18C30C0F52DC0803109F442C0813109F445C08F3009F047C037C08091B1
:2009600080008F7703C0809180008F7D80938000089584B58F7702C084B58F7D84BD08953D
:200980008091B0008F7703C08091B0008F7D8093B0000895809190008F7707C08091900091
:2009A0008F7D03C080919000877F8093900008958091A0008F7707C08091A0008F7D03C083
:2009C0008091A000877F8093A0000895809120018F7703C0809120018F7D80932001089506
:2009E00080912001877F809320010895FF920F931F93F62E482F50E0CA0182549E4FFC01B3
:200A00002491CA0188589E4FFC0114914E5C5E4FFA0104910023C1F0222311F0822F72DFE4
:200A2000E02FF0E0EE0FFF1FE250FF4FA591B4919FB7F894FF2021F48C911095812302C083
:200A40008C91812B8C939FBF1F910F91FF9008950F931F93482F50E0CA0182549E4FFC014E
:200A60002491CA0188589E4FFC0104914E5C5E4FFA011491112319F420E030E014C0222336
:200A800011F0822F3FDF812F90E0880F991F885E9E4FFC01A591B4918C9120E030E08023FC
:200AA00011F021E030E0C9011F910F91089508951F920F920FB60F920BB60F9211242F93BF
:200AC0003F934F938F939F93EF93FF938091C00082FD1DC04091C6002091890230918A02AD
:200AE0002F5F3F4F2F73307080918B0290918C022817390771F0E0918902F0918A02E75B20
:200B0000FD4F408330938A022093890202C08091C600FF91EF919F918F914F913F912F91D0
:200B20000F900BBE0F900FBE0F901F90189508951F920F920FB60F920BB60F9211242F9338
:200B40003F934F938F939F93EF93FF938091C80082FD1DC04091CE0020911103309112030A
:200B60002F5F3F4F2F73307080911303909114032817390771F0E0911103F0911203EF527C
:200B8000FD4F4083309312032093110302C08091CE00FF91EF919F918F914F913F912F9136
:200BA0000F900BBE0F900FBE0F901F90189508951F920F920FB60F920BB60F9211242F93B8
:200BC0003F934F938F939F93EF93FF938091D00082FD1DC04091D6002091990330919A036A
:200BE0002F5F3F4F2F73307080919B0390919C032817390771F0E0919903F0919A03E75ADC
:200C0000FC4F408330939A032093990302C08091D600FF91EF919F918F914F913F912F919E
:200C20000F900BBE0F900FBE0F901F90189508951F920F920FB60F920BB60F9211242F9337
:200C40003F934F938F939F93EF93FF938091300182FD1DC040913601209121043091220415
:200C60002F5F3F4F2F73307080912304909124042817390771F0E0912104F0912204EF5138
:200C8000FC4F4083309322042093210402C080913601FF91EF919F918F914F913F912F91AB
:200CA0000F900BBE0F900FBE0F901F901895E0917504F0917604E05CFF4F81919191208121
:200CC0003181821B930B8F739070892B09F0EFDEE0919704F0919804E05CFF4F81919191C4
:200CE00020813181821B930B8F739070892B09F01EDFE091B904F091BA04E05CFF4F8191B1
:200D0000919120813181821B930B8F739070892B09F04DDFE091DB04F091DC04E05CFF4F0D
:200D20008191919120813181821B930B8F739070892B09F07CCF08951F920F920FB60F92A2
:200D40000BB60F9211242F933F938F939F93EF93FF932091CD023091CE028091CF029091EC
:200D6000D0022817390731F48091C1008F7D8093C10014C0E091CF02F091D002E357FD4F5C
:200D800020818091CF029091D00201968F7390709093D0028093CF022093C600FF91EF91E2
:200DA0009F918F913F912F910F900BBE0F900FBE0F901F9018951F920F920FB60F920BB60B
:200DC0000F9211242F933F938F939F93EF93FF932091550330915603809157039091580337
:200DE0002817390731F48091C9008F7D8093C90014C0E0915703F0915803EB5EFC4F2081DD
:200E0000809157039091580301968F73907090935803809357032093CE00FF91EF919F91A6
:200E20008F913F912F910F900BBE0F900FBE0F901F9018951F920F920FB60F920BB60F9219
:200E400011242F933F938F939F93EF93FF932091DD033091DE038091DF039091E0032817F8
:200E6000390731F48091D1008F7D8093D10014C0E091DF03F091E003E356FC4F208180917A
:200E8000DF039091E00301968F7390709093E0038093DF032093D600FF91EF919F918F91EF
:200EA0003F912F910F900BBE0F900FBE0F901F9018951F920F920FB60F920BB60F92112484
:200EC0002F933F938F939F93EF93FF93209165043091660480916704909168042817390749
:200EE00031F4809131018F7D8093310114C0E0916704F0916804EB5DFB4F208180916704ED
:200F00009091680401968F739070909368048093670420933601FF91EF919F918F913F9184
:200F20002F910F900BBE0F900FBE0F901F901895AF92BF92DF92EF92FF920F931F93CF9357
:200F4000DF93EC017A018B01DD24403081EE580780E0680780E0780711F0DD24D39491E064
:200F6000A92EB12CEC89FD89DD2069F0C50108A002C0880F991F0A94E2F7808360E079E0DA
:200F80008DE390E005C0108260E874E88EE190E0A801970189D3215030404040504056951E
:200FA00047953795279580E12030380720F0DD2011F0DD24D7CFE889F9893083EA89FB898B
:200FC000208319A2EE89FF89408121E030E0C9010C8C02C0880F991F0A94E2F7482B4083C2
:200FE000EE89FF894081C9010D8C02C0880F991F0A94E2F7482B4083EE89FF894081C90186
:201000000E8C02C0880F991F0A94E2F7482B4083EE89FF8980810F8C02C0220F331F0A94FA
:20102000E2F7209528232083DF91CF911F910F91FF90EF90DF90BF90AF900895DC011C96DD
:20104000ED91FC911D97E05CFF4F2191319180819181281B390B2F733070C9010895DC01B3
:201060001C96ED91FC911D97E05CFF4F20813181E054F040DF01AE5BBF4F8D919C911197D4
:201080002817390719F42FEF3FEF07C08D919C91E80FF91F8081282F30E0C9010895DC01AB
:2010A0001C96ED91FC911D97E05CFF4F20813181E054F040DF01AE5BBF4F8D919C91119794
:2010C0002817390719F42FEF3FEF10C08D919C911197E80FF91F20818D919C91119701963B
:2010E0008F73907011969C938E9330E0C9010895DC0191968C919197882339F05496ED91FB
:20110000FC915597808186FFF9CF91961C920895CF93DF93EC01EE85FF85E05CFF4F2081B3
:201120003181E054F0402F5F3F4F2F733070DF01AE5BBF4F8D919C91119728173907D1F30E
:20114000E05CFF4F80819181E054F040E80FF91F6083EE85FF85E05CFF4F31832083EE894D
:20116000FF89208181E090E00F8C02C0880F991F0A94E2F7282B208381E089A3EC89FD89D4
:2011800080818064808381E090E0DF91CF9108951F9310926C0410926B0428EE33E040E00B
:2011A00050E020936D0430936E0440936F045093700467E172E070936A046093690489E431
:2011C00092E090937604809375048DE892E0909378048093770485EC90E090937A048093CB
:2011E000790484EC90E090937C0480937B0480EC90E090937E0480937D0481EC90E0909348
:20120000800480937F0482EC90E0909382048093810486EC90E0909384048093830414E07A
:2012200010938504B3E0B0938604A7E0A0938704F5E0F0938804E1E0E093890410928E0404
:2012400010928D0420938F0430939004409391045093920470938C0460938B0481ED92E0E8
:20126000909398048093970485E193E090939A04809399048DEC90E090939C0480939B0459
:201280008CEC90E090939E0480939D0488EC90E09093A00480939F0489EC90E09093A204DE
:2012A0008093A1048AEC90E09093A4048093A3048EEC90E09093A6048093A5041093A7044A
:2012C000B093A804A093A904F093AA04E093AB041092B0041092AF042093B1043093B20460
:2012E0004093B3045093B4047093AE046093AD0489E593E09093BA048093B9048DE993E0F5
:201300009093BC048093BB0485ED90E09093BE048093BD0484ED90E09093C0048093BF04DF
:2013200080ED90E09093C2048093C10481ED90E09093C4048093C30482ED90E09093C604A0
:201340008093C50486ED90E09093C8048093C7041093C904B093CA04A093CB04F093CC042B
:20136000E093CD041092D2041092D1042093D3043093D4044093D5045093D6047093D004D5
:201380006093CF0481EE93E09093DC048093DB0485E294E09093DE048093DD0485E391E003
:2013A0009093E0048093DF0484E391E09093E2048093E10480E391E09093E4048093E3047E
:2013C00081E391E09093E6048093E50482E391E09093E8048093E70486E391E09093EA0461
:2013E0008093E9041093EB04B093EC04A093ED04F093EE04E093EF041F910895CF93DF9308
:20140000E0D90E94F101C7E5D6E00E9431012097E1F34DDCFACFCF92DF92EF92FF920F9346
:201420001F93CF93DF937C016B018A01C0E0D0E00FC0D6016D916D01D701ED91FC910190DC
:20144000F081E02DC7011995C80FD91F015010400115110571F7CE01DF91CF911F910F91A5
:20146000FF90EF90DF90CF900895EF92FF920F931F938C01DC01ED91FC910190F081E02D09
:201480006DE019957C01D801ED91FC910190F081E02DC8016AE019959C012E0D3F1DC90122
:2014A0001F910F91FF90EF900895CF93DF93EC016115710519F420E030E00FC0DB010D901F
:2014C0000020E9F71197A61BB70BE881F9810280F381E02DAD0119959C01C901DF91CF9168
:2014E00008954F925F927F928F929F92AF92BF92CF92DF92EF92FF920F931F93DF93CF937C
:20150000CDB7DEB7A1970FB6F894DEBF0FBECDBF2C01742ECB01223008F42AE019A231E272
:20152000C32ED12CCC0EDD1E822E9924AA24BB24672D752FA5019401B7D079018A01C80106
:20154000B701A501940191D0472D461B0894C108D1084A3014F4405D01C0495CF6014083E5
:20156000E114F1040105110521F07E2C5F2DC801DFCFC201B60199DFA1960FB6F894DEBF90
:201580000FBECDBFCF91DF911F910F91FF90EF90DF90CF90BF90AF909F908F907F905F901C
:2015A0004F900895CF92DF92EF92FF920F931F93CF93DF93EC016A017B012115310541F42E
:2015C000E881F9810190F081E02D642F19951DC02A303105C9F477FF16C0E881F9810190EE
:2015E000F081E02D6DE219958C0144275527BA014C195D096E097F09CE012AE072DF9801B4
:20160000280F391F03C02AE06CDF9C01C901DF91CF911F910F91FF90EF90DF90CF90089523
:20162000EF92FF920F931F937B019A010027F7FC0095102FB801A701B5DF1F910F91FF906B
:20164000EF90089532CF0895EF92FF920F931F937C012BDF8C01C70108DF080F191FC8018F
:201660001F910F91FF90EF900895629FD001739FF001829FE00DF11D649FE00DF11D929F4F
:20168000F00D839FF00D749FF00D659FF00D9927729FB00DE11DF91F639FB00DE11DF91FA4
:2016A000BD01CF0111240895A1E21A2EAA1BBB1BFD010DC0AA1FBB1FEE1FFF1FA217B30758
:2016C000E407F50720F0A21BB30BE40BF50B661F771F881F991F1A9469F760957095809512
:2016E00090959B01AC01BD01CF010895EE0FFF1F0590F491E02D1994F894FFCF3030303048
:2017000030300020000A00F401F401F401F4010000000088080B0A1E084F082F0878080092
:20172000FFFFFFFFFFFFFFFFFFFFFFFFFFFFFFFFFFFFFFFFFFFFFFFFFFFFFFFFFFFFFFFFC9
:20174000FFFFFFFFFFFFFFFFFFFFFFFFFFFFFFFFFFFFFFFFFFFFFFFFFFFFFFFFFFFFFFFFA9
:20176000FFFFFFFFFFFFFFFFFFFFFFFFFFFFFFFFFFFFFFFFFFFFFFFFFFFFFFFFFFFFFFFF89
:20178000FFFFFFFFFFFFFFFFFFFFFFFFFFFFFFFFFFFFFFFFFFFFFFFFFFFFFFFFFFFFFFFF69
:2017A000FFFFFFFFFFFFFFFFFFFFFFFFFFFFFFFFFFFFFFFFFFFFFFFFFFFFFFFFFFFFFFFF49
:2017C000FFFFFFFFFFFFFFFFFFFFFFFFFFFFFFFFFFFFFFFFFFFFFFFFFFFFFFFFFFFFFFFF29
:2017E000FFFFFFFFFFFFFFFFFFFFFFFFFFFFFFFFFFFFFFFFFFFFFFFFFFFFFFFFFFFFFFFF09
:20180000000000A608280A3C086D084D08960800FFFFFFFFFFFFFFFFFFFFFFFFFFFFFFFF4C
:20182000FFFFFFFFFFFFFFFFFFFFFFFFFFFFFFFFFFFFFFFFFFFFFFFFFFFFFFFFFFFFFFFFC8
:20184000FFFFFFFFFFFFFFFFFFFFFFFFFFFFFFFFFFFFFFFFFFFFFFFFFFFFFFFFFFFFFFFFA8
:20186000FFFFFFFFFFFFFFFFFFFFFFFFFFFFFFFFFFFFFFFFFFFFFFFFFFFFFFFFFFFFFFFF88
:20188000FFFFFFFFFFFFFFFFFFFFFFFFFFFFFFFFFFFFFFFFFFFFFFFFFFFFFFFFFFFFFFFF68
:2018A000FFFFFFFFFFFFFFFFFFFFFFFFFFFFFFFFFFFFFFFFFFFFFFFFFFFFFFFFFFFFFFFF48
:2018C000FFFFFFFFFFFFFFFFFFFFFFFFFFFFFFFFFFFFFFFFFFFFFFFFFFFFFFFFFFFFFFFF28
:2018E000FFFFFFFFFFFFFFFFFFFFFFFFFFFFFFFFFFFFFFFFFFFFFFFFFFFFFFFFFFFFFFFF08
:201900007D848C849B84AA84B984C884DF80EE80FD800C811B81AA81B981CE0FD11D0FB678
:20192000F894DEBF0FBECDBFED010895F894FFCF310032003300340035003600010000000A
:2019400000000000F409770B8A09BB099B09E409FFFFFFFFFFFFFFFFFFFFFFFFFFFFFFFF30
:20196000FFFFFFFFFFFFFFFFFFFFFFFFFFFFFFFFFFFFFFFFFFFFFFFFFFFFFFFFFFFFFFFF87
:20198000FFFFFFFFFFFFFFFFFFFFFFFFFFFFFFFFFFFFFFFFFFFFFFFFFFFFFFFFFFFFFFFF67
:2019A000FFFFFFFFFFFFFFFFFFFFFFFFFFFFFFFFFFFFFFFFFFFFFFFFFFFFFFFFFFFFFFFF47
:2019C000FFFFFFFFFFFFFFFFFFFFFFFFFFFFFFFFFFFFFFFFFFFFFFFFFFFFFFFFFFFFFFFF27
:2019E000FFFFFFFFFFFFFFFFFFFFFFFFFFFFFFFFFFFFFFFFFFFFFFFFFFFFFFFFFFFFFFFF07
:201A00003909FFFFFFFFFFFFFFFFFFFFFFFFFFFFFFFFFFFFFFFFFFFFFFFFFFFFFFFFFFFFA2
:201A2000FFFFFFFFFFFFFFFFFFFFFFFFFFFFFFFFFFFFFFFFFFFFFFFFFFFFFFFFFFFFFFFFC6
:201A4000FFFFFFFFFFFFFFFFFFFFFFFFFFFFFFFFFFFFFFFFFFFFFFFFFFFFFFFFFFFFFFFFA6
:201A6000FFFFFFFFFFFFFFFFFFFFFFFFFFFFFFFFFFFFFFFFFFFFFFFFFFFFFFFFFFFFFFFF86
:201A8000FFFFFFFFFFFFFFFFFFFFFFFFFFFFFFFFFFFFFFFFFFFFFFFFFFFFFFFFFFFFFFFF66
:201AA000FFFFFFFFFFFFFFFFFFFFFFFFFFFFFFFFFFFFFFFFFFFFFFFFFFFFFFFFFFFFFFFF46
:201AC000FFFFFFFFFFFFFFFFFFFFFFFFFFFFFFFFFFFFFFFFFFFFFFFFFFFFFFFFFFFFFFFF26
:201AE000FFFFFFFFFFFFFFFFFFFFFFFFFFFFFFFFFFFFFFFFFFFFFFFFFFFFFFFFFFFFFFFF06
:201B0000A0939A05B0939B058091940590919505A0919605B09197050196A11DB11D8093CC
:201B2000940590939505A0939605B0939705BF91AF919F918F913F912F910F900FBE0F9027
:201B40001F9018958FB7F894209198053091990540919A0550919B058FBFB901CA01089549
:201B6000789484B5826084BD84B5816084BD85B5826085BD85B5816085BDEEE6F0E0808142
:201B800081608083E1E8F0E01082808182608083808181608083E0E8F0E0808181608083EE
:201BA000E1EBF0E0808184608083E0EBF0E0808181608083E1E9F0E08081826080838081A0
:201BC00081608083E0E9F0E0808181608083E1EAF0E0808182608083808181608083E0EA73
:201BE000F0E0808181608083E1E2F1E0808182608083808181608083E0E2F1E0808181605C
:201C00008083EAE7F0E08081846080838081826080838081816080838081806880831092DF
:201C2000C1000895629FD001739FF001829FE00DF11D649FE00DF11D929FF00D839FF00D0A
:201C4000749FF00D659FF00D9927729FB00DE11DF91F639FB00DE11DF91FBD01CF01112437
:201C60000895991B79E004C0991F961708F0961B881F7A95C9F78095089597FB092E0726CA
:201C80000AD077FD04D049D006D000201AF4709561957F4F0895F6F7909581959F4F0895EC
:201CA000A1E21A2EAA1BBB1BFD010DC0AA1FBB1FEE1FFF1FA217B307E407F50720F0A21BFE
:201CC000B30BE40BF50B661F771F881F991F1A9469F760957095809590959B01AC01BD0194
:201CE000CF01089597FB092E05260ED057FD04D0D7DF0AD0001C38F4509540953095219570
:201D00003F4F4F4F5F4F0895F6F790958095709561957F4F8F4F9F4F0895AA1BBB1B51E126
:201D200007C0AA1FBB1FA617B70710F0A61BB70B881F991F5A95A9F780959095BC01CD0188
:201D40000895EE0FFF1F0590F491E02D1994F894FFCF77616974696E670073656172636834
:201D6000696E67005374617274696E6700040000000000CC0A4F0C620A930A730ABC0A0058
:201D8000FFFFFFFFFFFFFFFFFFFFFFFFFFFFFFFFFFFFFFFFFFFFFFFFFFFFFFFFFFFFFFFF63
:201DA000FFFFFFFFFFFFFFFFFFFFFFFFFFFFFFFFFFFFFFFFFFFFFFFFFFFFFFFFFFFFFFFF43
:201DC000FFFFFFFFFFFFFFFFFFFFFFFFFFFFFFFFFFFFFFFFFFFFFFFFFFFFFFFFFFFFFFFF23
:201DE000FFFFFFFFFFFFFFFFFFFFFFFFFFFFFFFFFFFFFFFFFFFFFFFFFFFFFFFFFFFFFFFF03
:201E00006DE219958C0144275527BA014C195D096E097F09CE012AE072DF9801280F391F7A
:201E200003C02AE06CDF9C01C901DF91CF911F910F91FF90EF90DF90CF900895EF92FF9278
:201E40000F931F937B019A010027F7FC0095102FB801A701B5DF1F910F91FF90EF90089539
:201E6000CF92DF92EF92FF920F931F936C017B019A010027F7FC0095102FB801A701A0DFD8
:201E80008C01C60100DF080F191FC8011F910F91FF90EF90DF90CF90089515CF0895EF922C
:201EA000FF920F931F937C010EDF8C01C701EBDE080F191FC8011F910F91FF90EF900895A2
:201EC000629FD001739FF001829FE00DF11D649FE00DF11D929FF00D839FF00D749FF00DB6
:201EE000659FF00D9927729FB00DE11DF91F639FB00DE11DF91FBD01CF011124089597FB76
:201F0000092E07260AD077FD04D02ED006D000201AF4709561957F4F0895F6F790958195AB
:201F20009F4F0895A1E21A2EAA1BBB1BFD010DC0AA1FBB1FEE1FFF1FA217B307E407F507BD
:201F400020F0A21BB30BE40BF50B661F771F881F991F1A9469F760957095809590959B01AF
:201F6000AC01BD01CF010895AA1BBB1B51E107C0AA1FBB1FA617B70710F0A61BB70B881FAD
:201F8000991F5A95A9F780959095BC01CD010895EE0FFF1F0590F491E02D1994F894FFCF4F
:201FA000536572766F203120506F736974696F6E3A2000206F662031303233207265736F3E
:201FC0006C7574696F6E00536572766F203220506F736974696F6E3A2000536572766F2007
:201FE0003320506F736974696F6E3A2000536572766F203420506F736974696F6E3A2000AD
:2020000000000000960C190E2C0C5D0C3D0C860CFFFFFFFFFFFFFFFFFFFFFFFFFFFFFFFF8B
:20202000FFFFFFFFFFFFFFFFFFFFFFFFFFFFFFFFFFFFFFFFFFFFFFFFFFFFFFFFFFFFFFFFC0
:20204000FFFFFFFFFFFFFFFFFFFFFFFFFFFFFFFFFFFFFFFFFFFFFFFFFFFFFFFFFFFFFFFFA0
:20206000FFFFFFFFFFFFFFFFFFFFFFFFFFFFFFFFFFFFFFFFFFFFFFFFFFFFFFFFFFFFFFFF80
:20208000FFFFFFFFFFFFFFFFFFFFFFFFFFFFFFFFFFFFFFFFFFFFFFFFFFFFFFFFFFFFFFFF60
:2020A000FFFFFFFFFFFFFFFFFFFFFFFFFFFFFFFFFFFFFFFFFFFFFFFFFFFFFFFFFFFFFFFF40
:2020C000FFFFFFFFFFFFFFFFFFFFFFFFFFFFFFFFFFFFFFFFFFFFFFFFFFFFFFFFFFFFFFFF20
:2020E000FFFFFFFFFFFFFFFFFFFFFFFFFFFFFFFFFFFFFFFFFFFFFFFFFFFFFFFFFFFFFFFF00
:20210000BAC0803C910509F4E3C0883C910509F4DFC0883B910509F0EAC0C2C08091DA05EF
:202120008093BB00CFC09091010680910206981768F490910106E92FF0E0EF51FA4F80815C
:202140008093BB009F5F90930106BCC08091DB05882309F44BC085ED8093BC008091BC005B
:2021600084FDFCCFC2C080E28093460685ED8093BC008091BC0084FDFCCFB7C080E3809389
:20218000460685ED8093BC008091BC0084FDFCCFACC088E3809346069BC0809101069091CF
:2021A000BB00E82FF0E0EF51FA4F90838F5F80930106909101068091020682C0809101063E
:2021C0009091BB00E82FF0E0EF51FA4F90838F5F809301068091DB05882341F085ED809346
:2021E000BC008091BC0084FDFCCF7FC081E08093DC0584EA6EC085ED8093BC008091BC00CC
:2022000084FDFCCF72C083E08093D9051092450659C080914506803208F056C0809145066E
:202220009091BB00E82FF0E0EB5DF94F90838F5F8093450647C080914506803230F4E09142
:202240004506F0E0EB5DF94F108285ED8093BC008091BC0084FDFCCF1092D905609145062B
:20226000E091DF05F091E00585E296E070E01995109245062DC084E08093D90510922306CE
:2022800010922406E091DD05F091DE05199580912406882329F481E08093240610920306C1
:2022A00090912306E92FF0E0ED5FF94F80818093BB009F5F909323069091230680912406BA
:2022C000981710F485EC01C085E88093BC000FC085EC8093BC0009C01092460685ED809392
:2022E000BC008091BC0084FDFCCF1092D905FF91EF91BF91AF919F918F917F916F915F9199
:202300004F913F912F910F900BBE0F900FBE0F901F9018951092D90581E08093DB05109208
:20232000DC0584E161E078D685E161E075D6E9EBF0E080818E7F808380818D7F808388E4A5
:202340008093B80085E48093BC000895EF92FF920F931F937C018B01DC01ED91FC91A08165
:20236000B1816F772D913C91CF01F9011995D701ED91FC91A081B181000F012F001F110B92
:202380000F772D913C91CF01602FF90119951F910F91FF90EF900895FC010190F081E02D1E
:2023A000A081B1812D913C91CF0160EFF90119950895FC010190F081E02DA081B1812D91BE
:2023C0003C91CF0167EFF901199508950F931F938C01DC01ED91FC91A081B1812D913C911E
:2023E000CF0169EFF9011995D801ED91FC91A081B1812D913C91CF0162E0F9011995D801B8
:20240000ED91FC91A081B1812D913C91CF0163E0F90119951F910F9108951F93CF93DF93A5
:20242000EC018A818823B1F1CE01B6DFE881F981A081B1812D913C91CF0169E7F90119956A
:20244000E881F981A081B1812B813C814D915C91CF01F9016081FA011995E881F981A081BA
:20246000B1812B813C814D915C91CF01F9016181FA01199512E009C0EB81FC81E10FF11DFF
:202480006081CE0170E062DF1F5F8A811817A0F3CE018FDFDF91CF911F910895FC01A08138
:2024A000B181ED91FC9111970480F581E02DCD0119950895EF92FF920F931F938C017A01A9
:2024C000DC01ED91FC91A081B1816F70606E2D913C91CF01F9011995C801B70137DF1F91CA
:2024E0000F91FF90EF900895EF92FF920F931F937C018A01DC01ED91FC91A081B1816F7009
:2025000060692D913C91CF01F9011995D701ED91FC91A081B181602F6F772D913C91CF01E9
:20252000F9011995D701ED91FC91A081B181000F012F001F110B2D913C91CF01602FF9015F
:2025400019951F910F91FF90EF900895DF92EF92FF920F931F93CF93DF93EC01162FD42EF3
:20256000022FF32E19DFE881F981A081B1812D913C91CF01612FF9011995202F3F2DC901C3
:202580007C0110E007C0F70161917F01CE0170E0DDDE1F5F1D15B8F3CE010BDFDF91CF91DF
:2025A0001F910F91FF90EF90DF900895FC01603DA9F0613D28F4603959F0603CA1F40BC0E6
:2025C000603E19F0643F79F40CC054A743A7089556A745A7089550AB47A7089552AB41AB01
:2025E000089554AB43AB0895FC016F3F11F456AB45AB0895FC0152AF41AF0895FC01158257
:2026000016821782DC0180E018961C9218978F5F11968032C9F710A612A611A605A8F6A9C9
:20262000E02D309709F019950895FC01718360831282E4CF87E496E06BEA78E0F6CF4F9233
:202640005F926F927F928F929F92AF92BF92CF92DF92EF92FF920F93DF93CF930F920F92F7
:20266000CDB7DEB72B017A013A8329838DE061E020D400E089819A813C01882477FC80941A
:20268000982C5701CC24B7FCC094DC2C0DC0C401B30138D28DE061E0BFD4C601B50132D20D
:2026A0008DE060E0B9D40F5F802F90E08415950574F30F900F90CF91DF910F91FF90EF90FD
:2026C000DF90CF90BF90AF909F908F907F906F905F904F9008950F931F938C018DE061E048
:2026E000E8D3C80162E070E048E250E022ED30E0A6DF6AEF70E080E090E004D2C80163E06B
:2027000070E048E250E022ED30E099DF6DE770E080E090E0F7D11F910F9108959A01FA01B9
:2027200001900020E9F73197E41BF50B4E2F0ECFAB0161E7F3CF1F93CF93DF93EC018885B1
:20274000813729F0893781F5CE0167DE36C08FA998AD892B91F189A59AA5019762E070E01E
:202760000E94831D162F862F90E00E943401AC01DC0121E030E011C0FE01E20FF11D908557
:202780009C932F5FFE01E20FF11D8085879588278795890F8D932F5F3F5F311768F3EFA973
:2027A000F8ADCA01199509C0E9ADFAAD309729F069A561502996AE011995DF91CF911F91BA
:2027C0000895CF93DF93EC01A881B981ED91FC9111970680F781E02DCD011995AC0188A524
:2027E000882389F0473F510521F418A6CE01A3DF91C089A59AA5FE01E80FF91F408701968B
:202800009AA789A787C08D81882309F446C0403851050CF042C081508D83FE01E80FF11D93
:202820004087882309F076C08E81882309F472C0803D49F1813D28F4803959F0803C59F531
:202840001FC0803E19F0843F31F513C0EBA5FCA502C0EDA5FEA53097F1F0688570E07695FE
:20286000762F6627779567958985680F711D8F8111C0EBA9FCA9309771F06885898509C005
:20288000EFA5F8A902C0E9A9FAA9309721F068858F8170E019951E823DC0403F510514F0C3
:2028A0009A0106C09A01207F3070842F8F708F83203E3105F1F0213E310554F4203C310535
:2028C000D1F0203D3105B9F02039310519F511C0243F310571F0253F310524F4203F31054C
:2028E000C9F40DC0293F310591F02F3F310591F40BC082E001C081E08D832E830BC081E0CA
:2029000088A71AA619A606C0CE0178DE03C087E496E05CDDDF91CF910895AF92BF92CF92E1
:20292000DF92EF92FF920F931F93CF93DF938C01D62EC72EB42EA22E862F972F60E073E0A6
:202940000E945002EC018D2D9C2D6FE270E00E944502209779F07C010894E11CF11CE11451
:20296000F10441F09E012E5F822F8E19D80112968C930FC0AD2DBC2DFD0101900020E9F7EC
:20298000ED19EF5FD8011296EC932D2D3C2DC9017C01F801828190E00E943401FC01D801C0
:2029A00014969C938E93139712968C911297E80FF11D10821396ED91FC911497B082139634
:2029C000ED91FC911497A18213968D919C91149712964C9150E0425050400296B7010E94B6
:2029E0003602DF91CF911F910F91FF90EF90DF90CF90BF90AF9008950F931F938C018BEA22
:202A000098E090D5D801ED91FC918091AD089091AE08938382838091AF089091B008A0916B
:202A2000B108B091B20884839583A683B7838091B3089091B408A091B508B091B6088087C3
:202A40009187A287B387C80146DEC801BFDCC801E4DC1F910F9108951F920F920FB60F927C
:202A600011242F933F938F939F93AF93BF938091860690918706A0918806B091890630910A
:202A80008A060196A11DB11D232F2D5F2D3720F02D570196A11DB11D20938A0680938606A8
:202AA00090938706A0938806B09389068091820690918306A0918406B09185060196A11DB4
:202AC000B11D8093820690938306A0938406B0938506BF91AF919F918F913F912F910F9047
:202AE0000FBE0F901F9018958FB7F894209186063091870640918806509189068FBFB901DA
:202B0000CA0108959B01AC017FB7F8948091820690918306A0918406B091850666B5A89B1A
:202B200005C06F3F19F00196A11DB11D7FBFBA2FA92F982F8827860F911DA11DB11D62E070
:202B4000880F991FAA1FBB1F6A95D1F7BC012DC0FFB7F8948091820690918306A0918406D2
:202B6000B0918506E6B5A89B05C0EF3F19F00196A11DB11DFFBFBA2FA92F982F88278E0FFA
:202B8000911DA11DB11DE2E0880F991FAA1FBB1FEA95D1F7861B970B885E9340C8F22150D9
:202BA00030404040504068517C4F211531054105510571F60895019739F0880F991F880F5E
:202BC000991F02970197F1F70895789484B5826084BD84B5816084BD85B5826085BD85B52C
:202BE000816085BDEEE6F0E0808181608083E1E8F0E0108280818260808380818160808333
:202C0000E0E8F0E0808181608083E1EBF0E0808184608083E0EBF0E0808181608083E1E969
:202C2000F0E0808182608083808181608083E0E9F0E0808181608083E1EAF0E080818260FD
:202C40008083808181608083E0EAF0E0808181608083E1E2F1E080818260808380818160B1
:202C60008083E0E2F1E0808181608083EAE7F0E08081846080838081826080838081816088
:202C800080838081806880831092C1000895382F863308F0365320917B00832F8695869590
:202CA000869590E08170907043E0880F991F4A95E1F7277F282B20937B00377080910E037F
:202CC0008295880F880F807C832B80937C0080917A00806480937A0080917A0086FDFCCFA1
:202CE0002091780040917900942F80E030E0282B392BC90108951F93CF93DF93182FEB0157
:202D000061E0D7D0209709F4CAC0CF3FD10509F4C9C0E12FF0E0E254FE4F8491893009F4F5
:202D200066C08A30B0F48430F1F1853040F4823059F1833070F5813009F0AEC020C08730CD
:202D400009F443C0883008F048C0863009F0A4C034C08D3009F478C08E3038F48B3009F420
:202D60005AC08C3008F066C04CC0803109F480C0813109F487C08F3009F08EC06FC084B501
:202D8000806884BDC7BD91C084B5806284BDC8BD8CC080918000806880938000D093890010
:202DA000C093880082C080918000806280938000D0938B00C0938A0078C08091B000806844
:202DC0008093B000C093B30070C08091B00080628093B000C093B40068C0809190008068DC
:202DE00080939000D0939900C09398005EC080919000806280939000D0939B00C0939A001A
:202E000054C080919000886080939000D0939D00C0939C004AC08091A00080688093A0002D
:202E20008091A0008F7B8093A000D093A900C093A8003BC08091A00080628093A000D09379
:202E4000AB00C093AA0031C08091A00088608093A000D093AD00C093AC0027C08091200165
:202E6000806880932001D0932901C09328011DC080912001806280932001D0932B01C09326
:202E80002A0113C080912001886080932001D0932D01C0932C0109C0C038D1051CF4812F7E
:202EA00060E002C0812F61E0B7D0DF91CF911F910895CF93DF93482F50E0CA0188589E4F68
:202EC000FC0134914E5C5E4FFA018491882369F190E0880F991FFC01EC51FF4FA591B49102
:202EE000FC01E250FF4FC591D491662351F42FB7F8948C91932F909589238C9388818923D6
:202F00000BC0623061F42FB7F8948C91932F909589238C938881832B88832FBF06C09FB7F2
:202F2000F8948C91832B8C939FBFDF91CF910895893009F449C08A30A0F4843051F1853098
:202F400040F4823079F1833000F5813009F063C026C0873079F1883098F5863009F05BC096
:202F600025C08D3009F442C08E3028F48B30B1F18C30C0F52DC0803109F442C0813109F4BC
:202F800045C08F3009F047C037C0809180008F7703C0809180008F7D80938000089584B516
:202FA0008F7702C084B58F7D84BD08958091B0008F7703C08091B0008F7D8093B00008956F
:202FC000809190008F7707C0809190008F7D03C080919000877F8093900008958091A0007B
:202FE0008F7707C08091A0008F7D03C08091A000877F8093A0000895809120018F7703C082
:20300000809120018F7D80932001089580912001877F809320010895FF920F931F93F62E8F
:20302000482F50E0CA0182549E4FFC012491CA0188589E4FFC0114914E5C5E4FFA01049188
:203040000023C1F0222311F0822F72DFE02FF0E0EE0FFF1FE250FF4FA591B4919FB7F8947D
:20306000FF2021F48C911095812302C08C91812B8C939FBF1F910F91FF9008950F931F93DE
:20308000482F50E0CA0182549E4FFC012491CA0188589E4FFC0104914E5C5E4FFA01149128
:2030A000112319F420E030E014C0222311F0822F3FDF812F90E0880F991F885E9E4FFC0197
:2030C000A591B4918C9120E030E0802311F021E030E0C9011F910F91089508951F920F92ED
:2030E0000FB60F920BB60F9211242F933F934F938F939F93EF93FF934091C6002091CB06DC
:203100003091CC062F5F3F4F2F7330708091CD069091CE062817390759F0E091CB06F0915A
:20312000CC06E557F94F40833093CC062093CB06FF91EF919F918F914F913F912F910F90EE
:203140000BBE0F900FBE0F901F90189508951F920F920FB60F920BB60F9211242F933F93BF
:203160004F938F939F93EF93FF934091CE0020915307309154072F5F3F4F2F7330708091D0
:203180005507909156072817390759F0E0915307F0915407ED5EF84F4083309354072093C0
:2031A0005307FF91EF919F918F914F913F912F910F900BBE0F900FBE0F901F901895089579
:2031C0001F920F920FB60F920BB60F9211242F933F934F938F939F93EF93FF934091D6001B
:2031E0002091DB073091DC072F5F3F4F2F7330708091DD079091DE072817390759F0E09106
:20320000DB07F091DC07E556F84F40833093DC072093DB07FF91EF919F918F914F913F91D8
:203220002F910F900BBE0F900FBE0F901F90189508951F920F920FB60F920BB60F92112413
:203240002F933F934F938F939F93EF93FF934091360120916308309164082F5F3F4F2F7381
:20326000307080916508909166082817390759F0E0916308F0916408ED5DF74F40833093FA
:20328000640820936308FF91EF919F918F914F913F912F910F900BBE0F900FBE0F901F90B2
:2032A0001895E091B708F091B808E05CFF4F8191919120813181821B930B8F739070892BEE
:2032C00009F00BDFE091D608F091D708E05CFF4F8191919120813181821B930B8F7390700E
:2032E000892B09F033DFE091F508F091F608E05CFF4F8191919120813181821B930B8F73D4
:203300009070892B09F05BDFE0911409F0911509E05CFF4F8191919120813181821B930B4D
:203320008F739070892B09F083CF08951F920F920FB60F920BB60F9211242F933F938F93EA
:203340009F93EF93FF9320910F073091100780911107909112072817390731F48091C100AF
:203360008F7D8093C10014C0E0911107F0911207E153F94F2081809111079091120701965F
:203380008F73907090931207809311072093C600FF91EF919F918F913F912F910F900BBEF3
:2033A0000F900FBE0F901F9018951F920F920FB60F920BB60F9211242F933F938F939F936F
:2033C000EF93FF9320919707309198078091990790919A072817390731F48091C9008F7D2D
:2033E0008093C90014C0E0919907F0919A07E95AF84F20818091990790919A0701968F73B3
:20340000907090939A07809399072093CE00FF91EF919F918F913F912F910F900BBE0F90BD
:203420000FBE0F901F9018951F920F920FB60F920BB60F9211242F933F938F939F93EF930B
:20344000FF9320911F083091200880912108909122082817390731F48091D1008F7D8093EF
:20346000D10014C0E0912108F0912208E152F84F2081809121089091220801968F73907029
:2034800090932208809321082093D600FF91EF919F918F913F912F910F900BBE0F900FBE56
:2034A0000F901F9018951F920F920FB60F920BB60F9211242F933F938F939F93EF93FF93C6
:2034C0002091A7083091A8088091A9089091AA082817390731F4809131018F7D809331014E
:2034E00014C0E091A908F091AA08E959F74F20818091A9089091AA0801968F739070909329
:20350000AA088093A90820933601FF91EF919F918F913F912F910F900BBE0F900FBE0F90E8
:203520001F901895AF92BF92DF92EF92FF920F931F93CF93DF93EC017A018B01DD2440308D
:2035400081EE580780E0680780E0780711F0DD24D39491E0A92EB12CEC89FD89DD2069F010
:20356000C5010E8C02C0880F991F0A94E2F7808360E079E08DE390E005C0108260E874E8EC
:203580008EE190E0A8019701D1D22150304040405040569547953795279580E12030380738
:2035A00020F0DD2011F0DD24D7CFE889F9893083EA89FB892083EE89FF89408121E030E045
:2035C000C9010A8C02C0880F991F0A94E2F7482B4083EE89FF894081C9010B8C02C0880F53
:2035E000991F0A94E2F7482B4083EE89FF894081C9010C8C02C0880F991F0A94E2F7482B49
:203600004083EE89FF8980810D8C02C0220F331F0A94E2F7209528232083DF91CF911F916F
:203620000F91FF90EF90DF90BF90AF900895DC011C96ED91FC911D97E05CFF4F21913191F6
:2036400080819181281B390B2F733070C9010895DC011C96ED91FC911D97E05CFF4F2081AE
:203660003181E054F040DF01AE5BBF4F8D919C9111972817390719F42FEF3FEF07C08D918D
:203680009C91E80FF91F8081282F30E0C9010895DC011C96ED91FC911D97E05CFF4F2081A6
:2036A0003181E054F040DF01AE5BBF4F8D919C9111972817390719F42FEF3FEF10C08D9144
:2036C0009C911197E80FF91F20818D919C91119701968F73907011969C938E9330E0C90108
:2036E0000895FC0186859785DC01A05CBF4FFC01EE5BFF4F2D913C91119780819181281709
:203700003907C1F70895CF93DF93EC01EE85FF85E05CFF4F20813181E054F0402F5F3F4FFF
:203720002F733070DF01AE5BBF4F8D919C91119728173907D1F3E05CFF4F80819181E05449
:20374000F040E80FF91F6083EE85FF85E05CFF4F31832083EE89FF89208181E090E00D8C65
:2037600002C0880F991F0A94E2F7282B208381E090E0DF91CF9108951F931092AE081092E1
:20378000AD0828EE33E040E050E02093AF083093B0084093B1085093B20863E273E0709352
:2037A000AC086093AB088BE896E09093B8088093B7088FEC96E09093BA088093B90885ECF6
:2037C00090E09093BC088093BB0884EC90E09093BE088093BD0880EC90E09093C008809341
:2037E000BF0881EC90E09093C2088093C10886EC90E09093C4088093C30814E01093C50849
:20380000B3E0B093C608A7E0A093C708F5E0F093C808E1E0E093C9081092CD081092CC0861
:203820002093CE083093CF084093D0085093D1087093CB086093CA0883E197E09093D70886
:203840008093D60887E597E09093D9088093D8088DEC90E09093DB088093DA088CEC90E0D1
:203860009093DD088093DC0888EC90E09093DF088093DE0889EC90E09093E1088093E00876
:203880008EEC90E09093E3088093E2081093E408B093E508A093E608F093E708E093E8087E
:2038A0001092EC081092EB082093ED083093EE084093EF085093F0087093EA086093E908FE
:2038C0008BE997E09093F6088093F5088FED97E09093F8088093F70885ED90E09093FA089D
:2038E0008093F90884ED90E09093FC088093FB0880ED90E09093FE088093FD0881ED90E09A
:20390000909300098093FF0886ED90E0909302098093010910930309B0930409A0930509F3
:20392000F0930609E093070910920B0910920A0920930C0930930D0940930E0950930F0981
:20394000709309096093080983E298E0909315098093140987E698E09093170980931609A6
:2039600085E391E0909319098093180984E391E090931B0980931A0980E391E090931D0983
:2039800080931C0981E391E090931F0980931E0986E391E090932109809320091093220964
:2039A000B0932309A0932409F0932509E09326091F910895CF93DF9308D90E94D004C1E5C7
:2039C000D9E10E9457082097E1F36BDCFACFCF92DF92EF92FF920F931F93CF93DF937C0108
:2039E0006B018A01C0E0D0E00FC0D6016D916D01D701ED91FC910190F081E02DC701199506
:203A0000C80FD91F015010400115110571F7CE01DF91CF911F910F91FF90EF90DF90CF90D7
:203A200008952F923F924F925F926F927F928F929F92AF92BF92CF92DF92EF92FF920F9309
:203A40001F93DF93CF93CDB7DEB73B014C0119012A016E897F89888D998D6A197B098C0923
:203A60009D09621A730A840A950AA401930120D0E218F30804091509A801970179D02A0D70
:203A80003B1D4C1D5D1DB901CA01CF91DF911F910F91FF90EF90DF90CF90BF90AF909F90AD
:203AA0008F907F906F905F904F903F902F900895629FD001739FF001829FE00DF11D649FEC
:203AC000E00DF11D929FF00D839FF00D749FF00D659FF00D9927729FB00DE11DF91F639FE7
:203AE000B00DE11DF91FBD01CF0111240895991B79E004C0991F961708F0961B881F7A95FE
:203B0000C9F78095089597FB092E07260AD077FD04D049D006D000201AF4709561957F4F35
:203B20000895F6F7909581959F4F0895A1E21A2EAA1BBB1BFD010DC0AA1FBB1FEE1FFF1F36
:203B4000A217B307E407F50720F0A21BB30BE40BF50B661F771F881F991F1A9469F7609514
:203B60007095809590959B01AC01BD01CF01089597FB092E05260ED057FD04D0D7DF0AD008
:203B8000001C38F450954095309521953F4F4F4F5F4F0895F6F790958095709561957F4F41
:203BA0008F4F9F4F0895AA1BBB1B51E107C0AA1FBB1FA617B70710F0A61BB70B881F991F08
:203BC0005A95A9F780959095BC01CD010895EE0FFF1F0590F491E02D1994F894FFCF556EE8
:203BE0006B6E6F776E2070696E206D6F6465002F7661722F666F6C646572732F4C532F4C8D
:203C000053794D7A363149464A614B70756C495159306D31452B2B2B54492F2D546D702DF6
:203C20002F6275696C64353637303438393434383630303232373638352E746D702F5374E5
:203C4000616E646172644669726D6174612E637070004932432052656164204572726F7241
:203C60003A20546F6F206D616E7920627974657320726563656976656400493243205265A0
:203C80006164204572726F723A20546F6F2066657720627974657320726563656976656499
:203CA0000031302D6269742061646472657373696E67206D6F6465206973206E6F74207928
:203CC000657420737570706F7274656400746F6F206D616E792071756572696573002E632F
:203CE00070700020002B0900001300FF0100000000E20EB20E6B0E740E890E9A0E00000093
:203D000000831BE71C171B481B281B711B00FFFFFFFFFFFFFFFFFFFFFFFFFFFFFFFFFFFFB0
:203D2000FFFFFFFFFFFFFFFFFFFFFFFFFFFFFFFFFFFFFFFFFFFFFFFFFFFFFFFFFFFFFFFFA3
:203D4000FFFFFFFFFFFFFFFFFFFFFFFFFFFFFFFFFFFFFFFFFFFFFFFFFFFFFFFFFFFFFFFF83
:203D6000FFFFFFFFFFFFFFFFFFFFFFFFFFFFFFFFFFFFFFFFFFFFFFFFFFFFFFFFFFFFFFFF63
:203D8000FFFFFFFFFFFFFFFFFFFFFFFFFFFFFFFFFFFFFFFFFFFFFFFFFFFFFFFFFFFFFFFF43
:020000040003F7
:20E000000D94F6F20D941FF30D941FF30D941FF30D941FF30D941FF30D941FF30D941FF392
:20E020000D941FF30D941FF30D941FF30D941FF30D941FF30D941FF30D941FF30D941FF348
:20E040000D941FF30D941FF30D941FF30D941FF30D941FF30D941FF30D941FF30D941FF328
:20E060000D941FF30D941FF30D941FF30D941FF30D941FF30D941FF30D941FF30D941FF308
:20E080000D941FF30D941FF30D941FF30D941FF30D941FF30D941FF30D941FF30D941FF3E8
:20E0A0000D941FF30D941FF30D941FF30D941FF30D941FF30D941FF30D941FF30D941FF3C8
:20E0C0000D941FF30D941FF30D941FF30D941FF30D941FF30D941FF30D941FF30D941FF3A8
:20E0E0000D941FF341546D656761323536300041726475696E6F206578706C6F72657220EE
:20E1000073746B3530305632206279204D4C5300426F6F746C6F616465723E004875683FDC
:20E1200000436F6D70696C6564206F6E20203D2000435055205479706520202020203D2071
:20E14000005F5F4156525F415243485F5F203D2000415652204C69624320566572203D2033
:20E16000004743432056657273696F6E20203D2000435055207369676E61747572653D20F8
:20E18000004C6F77206675736520202020203D2000486967682066757365202020203D204D
:20E1A00000457874206675736520202020203D20004C6F636B2066757365202020203D2025
:20E1C00000536570202039203230313000312E362E3700342E332E3300562320202041446D
:20E1E00044522020206F7020636F64652020202020696E737472756374696F6E20616464E4
:20E2000072202020496E74657272757074006E6F20766563746F7200726A6D702020006A6C
:20E220006D7020005768617420706F72743A00506F7274206E6F7420737570706F72746576
:20E2400064004D7573742062652061206C65747465720020005772697474696E6720454577
:20E260000052656164696E6720454500656570726F6D206572726F7220636F756E743D00E2
:20E28000504F525400303D5A65726F20616464726573732063747273003F3D435055207353
:20E2A0007461747300403D454550524F4D207465737400423D426C696E6B204C45440045D4
:20E2C0003D44756D7020454550524F4D00463D44756D7020464C41534800483D48656C70CE
:20E2E000004C3D4C69737420492F4F20506F72747300513D517569742026206A756D702067
:20E30000746F20757365722070676D00523D44756D702052414D00563D73686F7720696E67
:20E320007465727275707420566563746F727300593D506F727420626C696E6B002A0052DA
:20E340004553455400494E543000494E543100494E543200494E543300494E543400494E64
:20E36000543500494E543600494E5437005043494E5430005043494E5431005043494E54F6
:20E3800032005744540054494D45523020434F4D50410054494D45523020434F4D504200D9
:20E3A00054494D455230204F56460054494D45523120434150540054494D45523120434F43
:20E3C0004D50410054494D45523120434F4D50420054494D45523120434F4D50430054493B
:20E3E0004D455231204F56460054494D45523220434F4D50410054494D45523220434F4D08
:20E4000050420054494D455232204F56460054494D45523320434150540054494D455233FC
:20E4200020434F4D50410054494D45523320434F4D50420054494D45523320434F4D5043C1
:20E440000054494D455233204F56460054494D45523420434150540054494D4552342043E8
:20E460004F4D50410054494D45523420434F4D50420054494D45523420434F4D504300548E
:20E48000494D455234204F56460054494D45523520434150540054494D45523520434F4D5D
:20E4A00050410054494D45523520434F4D50420054494D45523520434F4D50430054494D52
:20E4C000455235204F56460055534152543020525800555341525430205544524500555325
:20E4E0004152543020545800555341525431205258005553415254312055445245005553F7
:20E500004152543120545800555341525432205258005553415254322055445245005553D3
:20E520004152543220545800555341525433205258005553415254332055445245005553B0
:20E540004152543320545800535049205354430041444300414E414C4F4720434F4D500016
:20E560004545205245414459005457490053504D205245414459002A003FE345E34AE34F13
:20E58000E354E359E35EE363E368E36DE374E37BE382E3E9E3F6E303E4ABE3B7E3C4E3D1BD
:20E5A000E3DEE386E393E3A0E348E5C8E4D2E4DEE454E550E560E50EE41AE427E434E441FD
:20E5C000E4E8E4F2E4FEE469E56DE54CE458E465E472E47FE48AE496E4A3E4B0E4BDE40819
:20E5E000E512E51EE528E532E53EE50011241FBECFEFD1E2DEBFCDBF01E00CBF12E0A0E02B
:20E60000B2E0EAEDFFEF03E00BBF02C007900D92A030B107D9F712E0A0E0B2E001C01D9232
:20E62000AC30B107E1F70F94FBF40D94EBFF01E20EBF0FEF0DBF11241FBE0D94FBF40D9494
:20E6400000F020E030E040ED57E005C0FA013197F1F72F5F3F4F28173907C0F308959C015E
:20E66000442737FD4095542FDA01C901860F911DA11DB11DABBFFC018791882369F0809399
:20E68000C6008091C00086FFFCCF8091C00080648093C0006F5FE8CF08958DE08093C600A3
:20E6A0008091C00086FFFCCF8091C00080648093C0008AE08093C6008091C00086FFFCCF4D
:20E6C0008091C00080648093C00008950F942FF30F944DF30895FC019081992359F090939A
:20E6E000C6008091C00086FFFCCF8091C00080648093C0003196992379F70895282F982FFD
:20E7000092959F70892F805D8A3308F0895F8093C6008091C00086FFFCCF8091C0008064E2
:20E720008093C000822F8F70982F905D9A3308F0995F9093C6008091C00086FFFCCF8091CA
:20E74000C00080648093C00008959C01FB01853691051CF46330710594F0C90164E670E0BA
:20E760000F948CFF605D7F4F6093C6008091C00086FFFCCF8091C00080648093C0002B3023
:20E78000310514F43297B4F0C90164E670E00F948CFF6AE070E00F948CFF605D7F4F6093F6
:20E7A000C6008091C00086FFFCCF8091C00080648093C000C9016AE070E00F948CFFC09602
:20E7C0008093C6008091C00086FFFCCF8091C00080648093C0000895282F277020642093F5
:20E7E0007C0020917B0086958695869590E08170907033E0880F991F3A95E1F7277F282BBD
:20E8000020937B0080917A00806480937A0080917A0086FDFCCF2091780040917900942FBF
:20E8200080E030E0282B392BC90108951F93182F80E892EE60E00F942FF31093C6008091EA
:20E84000C00086FFFCCF8091C00080648093C0000F944DF31F9108952F923F924F925F928C
:20E860006F927F928F929F92AF92BF92CF92DF92EF92FF920F931F93DF93CF93CDB7DEB77D
:20E8800062970FB6F894DEBF0FBECDBF382E622ECA01DB015C016D01772460E2262E2E0170
:20E8A0000894411C511C8BC081E0A81680E0B80681E0C80680E0D80628F0C601AA27BB276B
:20E8C0000F947EF3BB27AD2D9C2D8B2D0F947EF38A2D0F947EF32092C6008091C00086FF3A
:20E8E000FCCF8091C00080648093C0009DE29093C6008091C00086FFFCCF8091C000806487
:20E900008093C0002092C6008091C00086FFFCCF8091C00080648093C0001982860175016B
:20E9200088249924A1E03A1651F03A1620F0B2E03B1661F409C00BBFF701779007C0C701A3
:20E940000F94D5FF782E02C0F7017080872D0F947EF32092C6008091C00086FFFCCF80917E
:20E96000C00080648093C000872D8052F401EF70F0708F3520F4E40DF51D708204C0E40D64
:20E98000F51D8EE280830894E11CF11C011D111D0894811C911C90E18916910409F0C2CFEB
:20E9A00080E190E0A0E0B0E0A80EB91ECA1EDB1E198AC2010F946BF30F944DF36A9466203A
:20E9C00009F072CF62960FB6F894DEBF0FBECDBFCF91DF911F910F91FF90EF90DF90CF90C2
:20E9E000BF90AF909F908F907F906F905F904F903F902F9008952F923F924F925F926F92CF
:20EA00007F928F929F92AF92BF92CF92DF92EF92FF920F931F93DF93CF93CDB7DEB7CD53BC
:20EA2000D1400FB6F894DEBF0FBECDBF279A2F9A8091C00082608093C00080E18093C40036
:20EA400088E18093C1000000EE24FF248701B4E0AB2EB12CCC24DD2424C0C5010197F1F757
:20EA60000894E11CF11C011D111D21E2E2162EE4F20620E0020720E0120718F0A1E0CA2EFC
:20EA8000D12CC801B70128E53BE140E050E00F949FFF611571058105910519F485B180581B
:20EAA00085B98091C00087FD03C0C114D104A9F2A6014F5F5F4FC25EDE4F59834883CE51A5
:20EAC000D140C25EDE4F68817981CE51D1406130710511F00D946EFFC05DDE4F1982188230
:20EAE000C053D14060E0C15DDE4F1882CF52D140AA24BB24C05EDE4F188219821A821B8235
:20EB0000C052D140CE5CDE4F188219821A821B82C253D14080E090E0A0E0B0E0ABBFFC01A0
:20EB2000A791B691C45CDE4FB983A883CC53D1400D9469FFC25EDE4FE881F981CE51D14009
:20EB4000319709F52091C600C25EDE4F19821882CE51D14022C02F5F3F4F4F4F5F4F21302B
:20EB6000F2E13F07FAE74F07F0E05F0780F0C45CDE4F08811981CC53D1400F5F1F4F19F01A
:20EB8000EE27FF27099420E030E040E050E08091C00087FFE0CF2091C600213209F094C61A
:20EBA0000894A11CB11C33E0A316B10409F08EC600E010E018C041E24093C6008091C0002C
:20EBC00086FFFCCF8091C00080648093C0002F5F3F4F2931310579F70F944DF30F5F1F4F82
:20EBE0000530110519F020E030E0E5CF109208021092090210920A0210920B02109204029F
:20EC0000109205021092060210920702109200021092010210920202109203028FEE90EE65
:20EC200060E00F9466F380E191EE60E00F942FF38091C00087FFFCCF9091C600903608F0EC
:20EC40009F759032B8F09093C6008091C00086FFFCCF8091C00080648093C00080E280932F
:20EC6000C6008091C00086FFFCCF8091C00080648093C000983409F4DBC19934B8F4923481
:20EC800009F45DC1933458F4903319F1903308F418C69F33A1F1903409F013C6BDC095349C
:20ECA00009F474C1963409F00CC69CC1923509F42FC2933538F49C3409F4F9C1913509F041
:20ECC00000C61CC2963509F449C2993509F0F9C59CC485E892EE62E00F9466F31092040205
:20ECE000109205021092060210920702109208021092090210920A0210920B0217C189E916
:20ED000092EE62E00F9466F38FEE90EE60E00F9466F381E291EE60E00F942FF381EC91EE2B
:20ED200060E00F9466F381E391EE60E00F942FF384EE90EE60E00F9466F381E491EE60E05F
:20ED40000F942FF386E090E061E070E00F94A5F30F944DF381E691EE60E00F942FF383ED0E
:20ED600091EE60E00F9466F381E591EE60E00F942FF38DEC91EE60E00F9466F381E791EED3
:20ED800060E00F942FF38EE10F947EF388E90F947EF381E00F947EF30F944DF381E891EE26
:20EDA00060E00F942FF319E0E0E0F0E010935700E4918E2F0F947EF30F944DF381E991EEB9
:20EDC00060E00F942FF3E3E0F0E010935700E4918E2F0F947EF30F944DF381EA91EE60E04E
:20EDE0000F942FF3E2E0F0E010935700E4918E2F0F947EF30F944DF381EB91EE60E00F94CB
:20EE00002FF3E1E0F0E0109357001491812F0F947EF30F944DF307CF85EA92EE62E00F944F
:20EE200066F385E592EE60E00F9466F30F944DF300E010E019C0C8016F2D0F94DDFFFF20C4
:20EE400031F483E592EE60E00F942FF30BC0F092C6008091C00086FFFCCF8091C0008064B7
:20EE60008093C0000F5F1F4FC80181519F41AA2797FDA095BA2FABBFFC01F7905AE2F516B0
:20EE800021F062E000301607B1F60F944DF30F944DF381E692EE60E00F9466F30F944DF35F
:20EEA000CC24DD2400E010E01EC0C8010F94D5FFF82E882331F483E592EE60E00F942FF390
:20EEC0000BC08093C6008091C00086FFFCCF8091C00080648093C000FE1419F00894C11C51
:20EEE000D11C0F5F1F4FC80181519F41AA2797FDA095BA2FABBFFC01E7907AE2E71621F003
:20EF000082E00030180789F60F944DF30F944DF38CE692EE60E00F942FF3C60161E070E0AC
:20EF20000F94A5F30F944DF30F944DF31092000210920102109202021092030274CE83EB8A
:20EF400092EE62E00F9466F3279A2F9A16C02F9880E090E0E0EDF7E03197F1F70196843657
:20EF60009105C1F72F9A80E090E0E0EDF7E03197F1F7019684369105C1F78091C00087FF60
:20EF8000E6CF8091C00087FFFCCF95C48FEB92EE62E00F9466F34091000250910102609161
:20EFA00002027091030281E020E10F942CF48091000290910102A0910202B09103028050A0
:20EFC0009F4FAF4FBF4F8093000290930102A0930202B093030280509041A040B04008F410
:20EFE00022CEA4CF8DEC92EE62E00F9466F34091040250910502609106027091070280E055
:20F0000020E10F942CF48091040290910502A0910602B091070280509F4FAF4FBF4F80938D
:20F02000040290930502A0930602B0930702FBCD8AED92EE62E00F9466F385E892EE60E0EF
:20F040000F9466F389E992EE60E00F9466F385EA92EE60E00F9466F383EB92EE60E00F948A
:20F0600066F38FEB92EE60E00F9466F38DEC92EE60E00F9466F38AED92EE60E00F9466F399
:20F0800081EE92EE60E00F9466F382EF92EE60E00F9466F38CE093EE60E00F9466F387E187
:20F0A00093EE60E00F9466F380E393EEB9CD81EE92EE62E00F9466F381E40F9416F482E484
:20F0C0000F9416F483E40F9416F484E40F9416F485E40F9416F486E40F9416F487E40F941F
:20F0E00016F488E40F9416F48AE40F9416F48BE40F9416F48CE40F9416F495CD82EF92EE46
:20F1000062E00F9466F399249394AA24BB2445C48CE093EE62E00F9466F340910802509130
:20F12000090260910A0270910B0282E020E10F942CF48091080290910902A0910A02B091CE
:20F140000B0280509F4FAF4FBF4F8093080290930902A0930A02B0930B0265CD87E193EEE3
:20F1600062E00F9466F384EE90EE60E00F9466F389ED91EE60E00F9466F309E715EECC5DD8
:20F18000DE4F19830883C452D140662477244301CA5DDE4F19821882C652D140A4019301A0
:20F1A0005695479537952795C85DDE4F288339834A835B83C852D140CA5DDE4F488159817A
:20F1C000C652D1404F5F5F4FCA5DDE4F59834883C652D140CA0162E070E00F94A5F350E2BC
:20F1E0005093C6008091C00086FFFCCF8091C00080648093C0006DE26093C6008091C000E4
:20F2000086FFFCCF8091C00080648093C00070E27093C6008091C00086FFFCCF8091C00009
:20F2200080648093C000C85DDE4FE880F9800A811B81C852D140BB27A12F902F8F2D0F94C2
:20F240007EF3C85DDE4F8881C852D1400F947EF370E2F72EF092C6008091C00086FFFCCFC3
:20F260008091C00080648093C0000DE30093C6008091C00086FFFCCF8091C00080648093D4
:20F28000C00010E21093C6008091C00086FFFCCF8091C00080648093C0008BBEF3012791B5
:20F2A000C45DDE4F2883CC52D140A22EBB24CC24DD240894611C711C811C911C8BBEF30159
:20F2C0008791282E332444245524142D032DF22CEE24EA0CFB1C0C1D1D1D0894611C711CD1
:20F2E000811C911C8BBEF3013791C35DDE4F3883CD52D1400894611C711C811C911C8BBE4E
:20F30000F3014791C25DDE4F4883CE52D1402DEF3FEF4FEF5FEF620E731E841E951E0F940A
:20F320007EF330E23093C6008091C00086FFFCCF8091C00080648093C000C45DDE4F8881C1
:20F34000CC52D1400F947EF340E24093C6008091C00086FFFCCF8091C00080648093C00006
:20F36000C25DDE4F8881CE52D1400F947EF350E25093C6008091C00086FFFCCF8091C00026
:20F3800080648093C000C35DDE4F8881CD52D1400F947EF360E26093C6008091C00086FFCB
:20F3A000FCCF8091C00080648093C0007FEFE7167FEFF70670E0070770E0170731F48EE0C5
:20F3C00092EE60E00F942FF3DFC0D801C7018070907CA070B0708050904CA040B040D1F5FA
:20F3E0002FEF3FE340E050E0E222F32204231523C85DDE4FA880B980CA80DB80C852D14082
:20F40000AE0CBF1CC01ED11EAA0CBB1CCC1CDD1C88E192EE60E00F942FF3BB27A12F902FBD
:20F420008F2D0F947EF38E2D0F947EF330E23093C6008091C00086FFFCCF8091C0008064BC
:20F440008093C0004EE34093C6008091C00086FFFCCF87C06EE07EEF80E090E0E622F722FB
:20F46000082319237CE0E71674E9F70670E0070770E0170709F088C0C25DDE4F8881CE52F0
:20F48000D140E82EFF2400E010E0102F0F2DFE2CEE24C35DDE4F9881CD52D140E90EF11C01
:20F4A000011D111DD601C50181709070A070B070DC0199278827E80EF91E0A1F1B1F20EF77
:20F4C00030E040E050E0A222B322C422D522F1E1AA0CBB1CCC1CDD1CFA95D1F7EA0CFB1CB2
:20F4E0000C1D1D1D41E050E060E070E02422352246225722E5E1220C331C441C551CEA95B7
:20F50000D1F7E20CF31C041D151D57016801AA0CBB1CCC1CDD1C8FE192EE60E00F942FF3AF
:20F52000C801AA27BB270F947EF3BB27A12F902F8F2D0F947EF38E2D0F947EF350E2509316
:20F54000C6008091C00086FFFCCF8091C00080648093C0006EE36093C6008091C00086FFDC
:20F56000FCCF8091C00080648093C000C601AA27BB270F947EF3BB27AD2D9C2D8B2D0F94CA
:20F580007EF38A2D0F947EF370E27093C6008091C00086FFFCCF8091C00080648093C0006B
:20F5A000CC5DDE4FE881F981C452D140CF01AA2797FDA095BA2FABBFFC018791969160E0B2
:20F5C0000F942FF30F944DF3CC5DDE4F08811981C452D1400E5F1F4FCC5DDE4F198308838B
:20F5E000C452D140CA5DDE4F28813981C652D1402933310509F417CB44E050E060E070E0AF
:20F60000640E751E861E971EC9CD80E393EE62E00F9466F384E292EE60E00F942FF38091D8
:20F62000C00087FFFCCF1091C6001F751093C6008091C00086FFFCCF8091C000806480936C
:20F64000C0000F944DF3812F81548A3108F036C1163409F495C0173490F4133409F44EC01B
:20F66000143430F41134F1F0123409F01DC130C0143409F459C0153409F016C16BC01A34FB
:20F6800009F4C4C01B3438F4173409F48FC0183409F00AC1A1C01B3409F4D2C01C3409F03F
:20F6A00003C1E8C08FEF81B90DC082B1809582B980E090E0E0EDF7E03197F1F70196883C57
:20F6C0009105C1F78091C00087FFEFCF12B8EFC08FEF84B90DC085B1809585B980E090E06D
:20F6E000E0EDF7E03197F1F70196883C9105C1F78091C00087FFEFCF15B8D9C08FEF87B9D4
:20F700000DC088B1809588B980E090E0E0EDF7E03197F1F70196883C9105C1F78091C000EF
:20F7200087FFEFCF18B8C3C08FEF8AB90DC08BB180958BB980E090E0E0EDF7E03197F1F7EB
:20F740000196883C9105C1F78091C00087FFEFCF1BB8ADC08FEF8DB90DC08EB180958EB97F
:20F7600080E090E0E0EDF7E03197F1F70196883C9105C1F78091C00087FFEFCF1EB897C07A
:20F780008FEF80BB0DC081B3809581BB80E090E0E0EDF7E03197F1F70196883C9105C1F791
:20F7A0008091C00087FFEFCF11BA81C08FEF83BB0DC084B3809584BB80E090E0E0EDF7E0A0
:20F7C0003197F1F70196883C9105C1F78091C00087FFEFCF14BA6BC08FEF809301010FC060
:20F7E0008091020180958093020180E090E0E0EDF7E03197F1F70196883C9105C1F78091EC
:20F80000C00087FFEDCF1092020151C08FEF809304010FC08091050180958093050180E026
:20F8200090E0E0EDF7E03197F1F70196883C9105C1F78091C00087FFEDCF1092050137C0A9
:20F840008FEF809307010FC08091080180958093080180E090E0E0EDF7E03197F1F701963A
:20F86000883C9105C1F78091C00087FFEDCF109208011DC08FEF80930A010FC080910B0153
:20F88000809580930B0180E090E0E0EDF7E03197F1F70196883C9105C1F78091C00087FF10
:20F8A000EDCF10920B0103C08FE292EEB9C98091C00087FFFCCF8091C600B5C982E492EE4B
:20F8C000AFC98CE191EEACC9AA24BB24933061F1943028F4913089F0923008F508C0953027
:20F8E000B1F1953040F1963009F053C04EC02B3109F020C991E06BE11DC9213041F0C15D0F
:20F90000DE4F5881CF52D140251709F002C36227C15DDE4F2883CF52D14092E00BC9B22FDD
:20F92000A0E0622793E006C9822F90E0A82BB92B622794E0FFC82E3009F0EBC2622795E0DE
:20F94000C05DDE4F19821882C053D140F3C8E1E0F0E0EC0FFD1FC05DDE4FE880F980C05363
:20F96000D140EE0DFF1D208387010F5F1F4FC05DDE4F19830883C053D14062270A171B07F7
:20F9800009F0D8C8D80196E0D5C8261709F0C1C203C0973009F0CEC899248981833109F498
:20F9A000FCC08431C8F4863009F4C2C0873050F4823009F4F0C0833009F458C0813009F019
:20F9C0000AC23EC0813109F462C0823108F0A6C0803109F000C2DFC0883109F472C08931CE
:20F9E00050F4853109F4D9C0853108F477C1863109F0F1C173C18A3109F457C08A3108F471
:20FA00007CC08B3109F446C08D3109F0E4C18D81803311F090E00AC08F81882311F49EE154
:20FA200005C0813011F091E001C098E91A821B828D818C831D829E831F8227E030E0CFC13E
:20FA40001A8288E08B8381E48C8386E58D8382E58E8389E48F8383E5888780E589878FE54E
:20FA60008A8782E38B872BE030E0B9C18A81813941F0823941F0803911F48FE005C080E035
:20FA800003C082E001C08AE01A828B8344C09924939481C08D81882311F48EE12CC0813079
:20FAA00011F081E028C088E926C01A82E1E0F0E089E08093570084918B831C8224E030E0D0
:20FAC0008EC18B81803589F48C81883039F4E2E0F0E089E08093570084910DC0E0E0F0E0D0
:20FAE00089E080935700849106C0E3E0F0E089E08093570084911A82DFCF8D81836C99E01D
:20FB0000E1E0F0E0082E90935700E89507B600FCFDCF1A821B8223E030E061C11A82CE5C6E
:20FB2000DE4F188219821A821B82C253D14055C18A8190E0A0E0B0E0582F442733272227CE
:20FB40008B8190E0A0E0B0E0DC0199278827282B392B4A2B5B2B8D8190E0A0E0B0E0282B3A
:20FB6000392B4A2B5B2B8C8190E0A0E0B0E0BA2FA92F982F8827282B392B4A2B5B2B220F7F
:20FB8000331F441F551FC05EDE4F288339834A835B83C052D1401A8220C19A812B818331C4
:20FBA00049F0C05EDE4F488159816A817B81C052D1408AC0CE5CDE4F488159816A817B81E9
:20FBC000C253D140403080EC580783E0680780E07807F0F483E0FA0160935B008093570019
:20FBE000E89507B600FCFDCFCE5CDE4F488159816A817B81C253D14040505F4F6F4F7F4F32
:20FC0000CE5CDE4F488359836A837B83C253D140C95CDE4F9883C753D140CA5CDE4F188250
:20FC2000C653D140022F10E0CA5CDE4F68817981C653D140062B172BC05EDE4F48815981B8
:20FC40006A817B81C052D140DE011B9631E08C9111962C9111971296C75CDE4F2883C95311
:20FC6000D140C85CDE4F1882C853D14090E0C85CDE4FE881F981C853D1408E2B9F2B0C01FC
:20FC8000FA0160935B0030935700E89511244E5F5F4F6F4F7F4F02501040C9F685E0C05E84
:20FCA000DE4FE880F9800A811B81C052D140F70100935B0080935700E89507B600FCFDCF9A
:20FCC00081E180935700E8951A82C05EDE4F488359836A837B83C052D1407FC0FA80C55C65
:20FCE000DE4FF882CB53D140C65CDE4F1882CA53D1408B81C82EDD24C65CDE4F08811981A2
:20FD0000CA53D140C02AD12A1A828981BE016D5F7F4F843121F59601C05EDE4FE880F98043
:20FD20000A811B81C052D1400BBFF70187919691DB018C9311969C936E5F7F4FD801C7016B
:20FD40000296A11DB11DC05EDE4F88839983AA83BB83C052D14022503040F1F636C0C05EA2
:20FD6000DE4F288139814A815B81C052D1400894C108D108760100E010E00894C11CD11C3E
:20FD80000894E11CF11C011D111DE20EF31E041F151F21BDBB27A52F942F832F82BD2F5F43
:20FDA0003F4F4F4F5F4FF89A80B5DB018D93BD012E153F054007510761F7C05EDE4F288374
:20FDC00039834A835B83C052D14096012D5F3F4FFB01108204C080EC8A8322E030E08BE19F
:20FDE0008093C6008091C00086FFFCCF8091C00080648093C000C15DDE4FF881CF52D1408B
:20FE0000F093C6008091C00086FFFCCF8091C00080648093C000432F3093C6008091C00024
:20FE200086FFFCCF8091C00080648093C000922F2093C6008091C00086FFFCCF8091C000BE
:20FE400080648093C0008EE08093C6008091C00086FFFCCF8091C00080648093C00065E1B5
:20FE6000C15DDE4FE880CF52D1406E2569276427FE01319610C090819093C6008091C0008E
:20FE800086FFFCCF31968091C00080648093C0006927215030402115310569F76093C600CD
:20FEA0008091C00086FFFCCF8091C00080648093C00085B1805885B9992081F4C15DDE4FD4
:20FEC0000881CF52D1400F5FC15DDE4F0883CF52D14090E0A0E0B0E00D949AF527982F98BB
:20FEE00080E090E020ED37E0F9013197F1F7019684369105C9F700008091C0008D7F8093CD
:20FF0000C00081E180935700E895EE27FF270994FFCF90E00D949AF597FB092E07260AD0C2
:20FF200077FD04D02ED006D000201AF4709561957F4F0895F6F7909581959F4F0895A1E2DB
:20FF40001A2EAA1BBB1BFD010DC0AA1FBB1FEE1FFF1FA217B307E407F50720F0A21BB30B40
:20FF6000E40BF50B661F771F881F991F1A9469F760957095809590959B01AC01BD01CF01FF
:20FF80000895AA1BBB1B51E107C0AA1FBB1FA617B70710F0A61BB70B881F991F5A95A9F7A1
:20FFA00080959095BC01CD010895F999FECF92BD81BDF89A992780B50895262FF999FECF1B
:1AFFC0001FBA92BD81BD20BD0FB6F894FA9AF99A0FBE01960895F894FFCF11
:00000001FF
